S12340008104FDFFFFFFFFFFFFFF309C649C646400640000000000C800C8001E001E00005D
S123402000000000000000000000000000000000000000000000000000000000000000007C
S123404000000000000000000000000000000000000000000000000000000000000000005C
S123406000000000000000000000000000000000000000000000000000000000000000003C
S123408000000000000000000000000000000000000000000000000000000000000000001C
S12340a00000000000000000000000000000000000000000000000000000000000000000FC
S12340c00000000000000000000000000000000000000000000000000000000000000000DC
S12340e00000000000000000000000000000000000000000000000000000000000000000BC
S123410000000000000000000000000000000000000000000000000000000000000000009B
S123412000000000000000000000000000000000000000000000000000000000000000007B
S123414000000000000000000000000000000000000000000000000000000000000000005B
S123416000000000000000000000000000000000000000000000000000000000000000003B
S123418000000000000000000000000000000000000000000000000000000000000000001B
S12341a00000000000000000000000000000000000000000000000000000000000000000FB
S12341c00000000000000000000000000000000000000000000000000000000000000000DB
S12341e00000000000000000000000000000000000000000000000000000000000000000BB
S123420000000000000000000000000000000000000000000000000000000000000000009A
S12342200000000000000000000000000000000054686973204669726D7761726500000085
S12342404973205772697474656E2042793A000054696D0000000000000000000000000052
S12342604A61636B736F6E00000000000000000031393630000000000000000000000000A1
S9030000FC
